:020000040800F2
:1080000000040020D1110108011301080113010827
:1080100001130108011301080113010801130108EC
:1080200001130108011301080113010831130108AC
:1080300001130108011301080113010811140108BB
:108040000113010811450108011301080146010847
:1080500001130108011301081143010841430108FC
:1080600071430108A1430108D1430108F138010817
:108070002139010861390108A1390108E1390108F4
:10808000113A0108513A010841410108D14701085C
:1080900031480108C148010851490108014401085B
:1080A000011301080113010801130108011301085C
:1080B00001130108515A010801130108B1530108C5
:1080C000D15301081154010831540108011301086A
:1080D00001130108715C01086160010881600108F9
:1080E0008144010841450108714501080113010857
:1080F000011301080113010801130108913A010855
:1081000001130108011301080113010801130108FB
:1081100001130108011301080113010801130108EB
:10812000D13A0108013B0108413B0108813B0108AC
:10813000C13B010801130108A14501080113010811
:1081400001130108011301080113010801130108BB
:10815000F13B0108313C0108713C010801130108A1
:10816000011301080113010801130108011301089B
:10817000D145010801130108011301080113010889
:10818000011301080113010801130108011301087B
:10819000011301080113010801130108011301086B
:0C81A0000113010801130108011301087C
:0481AC00EE11AA55D1
:1081B0009182000831830008A1840008A18500088D
:1081C000E18700083188000891880008C18900080B
:1081D000118A0008718A0008918A0008B18A000893
:0C81E000D18A000891920008C1970008A5
:1081F00000207047AFF30080AFF30080AFF3008042
:1082000070B5054600F50E76D0F84C02203086B0E9
:10821000C5F84802314602220EF032FFD5F84C0272
:1082200005F514710AF0FCFE18480EF0E1FE03E0BB
:108230000EF00EFF042814D00EF0E2FE044642F2C7
:1082400010714FF0FF30002CF2D0D5F84C020AF03C
:108250001FFFD5F8480231460EF01AFF002006B085
:1082600070BD21462346D5F84C0201AA0AF090FFC2
:108270000028E1D12B6828465B6901A998470028AE
:10828000DAD0284601A90EF0ABFFD5E760700208EE
:10829000024B034A1A605A60704700BF0C1A002054
:1082A000A0860100AFF30080AFF30080AFF3008041
:1082B00070B504463F2300F50370002204F5F27503
:1082C000C4F80422C4F81032C4F80C02C4F8F40153
:1082D0002946012204F5FC760EF0D2FE30460EF05F
:1082E0004FF910480EF084FE05E04FF0FF300EF01D
:1082F0009FFE02280DD00EF083FE0028F5D03046F8
:108300000EF05EF9D4F8F40129460EF0C1FE00200B
:1083100070BD236820465B699847236820469B69A7
:108320009847E8E7D0700208AFF30080AFF3008011
:10833000024B034A1A605A60704700BF141A0020AB
:10834000A0860100AFF30080AFF30080AFF30080A0
:108350002DE9F047044682B0D4F860524C480EF044
:1083600047FE2B682846DB6998470423D4F86482CB
:10837000C4F87C320022822301AFC4F884228DF835
:108380000430C4F8787298F803308DF8053098F806
:108390000230D4F86002C82B9ABF0A22B3FBF2F372
:1083A00014238DF8063098F801308DF807300368F3
:1083B00004F51D765B6931464FF0FF329847802304
:1083C0008DF8043098F800308DF805300223C4F899
:1083D0007C3240B12B6828461B6A98476FF0010039
:1083E00002B0BDE8F087D4F86002036831465B69EB
:1083F0004FF0FF3298472B6880461B6A2846984703
:10840000B8F1000FEAD14FF0850A0DF103094FF0E2
:10841000010835E02B682846DB699847D4F86002EC
:108420008DF803A00368C4F878920422C4F880721F
:108430005B69C4F87C82C4F8842231464FF0FF3275
:10844000984778B99DF804009DF805209DF806101E
:108450009DF8073042EA002243EA0123A4F86C2287
:10846000A4F86E322B6828461B6A984704F51A70E8
:1084700000210EF015FE4FF0FF303F210EF0F0FD11
:108480000EF0BEFD0028C5D0002002B0BDE8F08788
:10849000B0710208AFF30080AFF30080AFF300804B
:1084A000024B034A1A605A60704700BF1C1A002032
:1084B000A0860100AFF30080AFF30080AFF300802F
:1084C0002DE9F04304468DB03248D4F860520EF0E6
:1084D0008FFD0EF095FD0DF10308012701AE8146D9
:1084E000002852D12B682846DB699847D4F86002EF
:1084F0008DF803900368C4F89C822B22C4F8A46210
:108500005B69C4F8A072C4F8A82204F526714FF084
:10851000FF32984730BB9DF805209DF8043043EAB0
:108520000223A4F86C320DF1240E0DF10A03224649
:1085300013F8010C13F8021C023341EA00217345C1
:10854000A2F86E1202F10202F2D122460DF12203CC
:108550000DF12F0013F8011B82F88812834202F1FB
:108560000102F7D12B6828461B6A984704F51A7058
:1085700000210EF095FD3F214FF0FF300EF070FD11
:108580000EF03EFD81460028ACD000200DB0BDE8C5
:10859000F08300BF10720208AFF30080AFF30080D9
:1085A000024B034A1A605A60704700BF241A002029
:1085B000A0860100AFF30080AFF30080AFF300802E
:1085C0002DE9F8430446002300F5257001222DED26
:1085D000028B04F51B71C4F88C32C4F89822C4F8DD
:1085E0009402C4F87C020EF04BFD20460FF050FEC2
:1085F000D4F86802D4F864520FF072FEB0F5805FD0
:10860000C0F0D28040F6FF72D4F86412D4F8600251
:108610006368AA830022CA834361664A664E9FED5F
:10862000678A01230AF08CFC0EF0EAFC054600285C
:108630006CD14FF0FF304FF47A710EF009FD012834
:108640006AD00228F0D104F520700DF0B9FFD4F8FB
:108650006412584AD4F860020D700123A2F15C073D
:108660000AF086FCD4F864324FF0010883F80080E9
:1086700020460FF00DFED4F86802B7F85C900FF0BA
:108680002FFE8145B7F85C005AD90FF061FE07EE66
:10869000100AF8EE477A40F6FF77C7EE887A17EEB1
:1086A000900A06F0D9FD02460B46454845490FF0B1
:1086B000FFFD454812F054FE037843F010030370A9
:1086C0003068036841469B689847404B18680368C8
:1086D00041469B689847D4F86452D4F86802AF8347
:1086E0000FF0FEFDB0F5805F54D33846D4F8641225
:1086F000E883D4F86002636843612E4A01230AF0DC
:108700001FFC0EF07DFC0546002892D0BDEC028BCC
:108710006FF00100BDE8F8833068036829469B6864
:1087200098472A4B1868036829469B689847204653
:1087300029460FF05DFE04F520700DF021FF73E770
:108740000FF006FE07EE100AF8EE477AC7EE887AB9
:1087500017EE900A06F080FD02460B4618481C49A9
:108760000FF0A6FD184812F0FBFD037865F3041323
:108770000370D4F86802D4F864520FF0B1FDB0F57C
:10878000805F0CD340F6FF70D4F86412A8830023F6
:10879000CB83AEE7D4F868020FF0A2FDA6E7D4F8C9
:1087A00068020FF09DFDEFE7D4F868020FF098FD26
:1087B000024629E79C1F0020C03400200024744991
:1087C000305600206072020868560020C434002031
:1087D00080720208AFF30080AFF30080AFF3008037
:1087E000024B034A1A605A60704700BF2C1A0020DF
:1087F000A0860100AFF30080AFF30080AFF30080EC
:1088000010B5044607E023682046DB6898474FF41C
:108810007A700EF005FC0EF0F3FB0028F3D0002078
:1088200010BD00BFAFF30080AFF30080AFF3008056
:10883000024B034A1A605A60704700BF341A002086
:10884000A0860100AFF30080AFF30080AFF300809B
:1088500070B5054600F520760CE02B68DB6898477C
:10886000304621460EF01CFC4FF0FF304FF47A7179
:108870000EF0F6FB0EF0C4FB04462846002CECD0AC
:10888000002070BDAFF30080AFF30080AFF3008035
:10889000024B034A1A605A60704700BF3C1A00201E
:1088A000A0860100AFF30080AFF30080AFF300803B
:1088B0002DE9F041064632480EF09AFB06F50B779B
:1088C00006F52F750024291938464FF0FF32483439
:1088D0000EF0F6FBB4F5347FF5D1C8200EF0A0FB06
:1088E000D6F80002DFF89C8006F5F0710AF040FF30
:1088F00006F5157506F5B26403E028460EF0F0FBA8
:1089000048B10EF07DFB21464FF0FF320028F4D035
:108910000020BDE8F081D6F8900510F031FF30B3AB
:1089200096F8B83283B1032386F8B8323046D6F8C9
:10893000004211F05DF90421024620460AF040FF92
:1089400001200EF07DFBD5E7D6F8900510F020FF52
:108950000446D6F8900510F013FFB8F80030235203
:10896000811C2246D6F800020AF02AFFE8E73846C2
:10897000D6F890154FF0FF320EF0A2FBBAE700BF19
:1089800030790208606C0208AFF30080AFF300801A
:1089900010B5044608480EF02BFB03E0204611F00A
:1089A00027FB28B90EF02CFB0028F7D0002010BDC3
:1089B00020460EF0C5FAF5E7E8790208AFF300802B
:1089C000024B034A1A605A60704700BF441A0020E5
:1089D000A0860100AFF30080AFF30080AFF300800A
:1089E00010B5044608480EF003FB03E0204611F0E2
:1089F00057FC28B90EF004FB0028F7D0002010BD6A
:108A000020460EF09DFAF5E7207A0208AFF30080C9
:108A1000024B034A1A605A60704700BF4C1A00208C
:108A2000A0860100AFF30080AFF30080AFF30080B9
:108A300030B500F5F07583B004460C480EF0D8FA56
:108A4000284604F66802FF2110F072FF29466846A6
:108A500040220EF08DFB02E0204611F0C1FC0EF02A
:108A6000CFFA0028F8D0002003B030BD9C7A02086D
:108A7000024B034A1A605A60704700BF541A002024
:108A8000A0860100AFF30080AFF30080AFF3008059
:108A9000024B034A1A605A60704700BF5C1A0020FC
:108AA000A0860100AFF30080AFF30080AFF3008039
:108AB000024B034A1A605A60704700BF641A0020D4
:108AC000A0860100AFF30080AFF30080AFF3008019
:108AD000024B034A1A605A60704700BF6C1A0020AC
:108AE000A0860100AFF30080AFF30080AFF30080F9
:108AF0002DE9F04F2DED068BB84E002493B0347065
:108B000007210AA80EF004FB2146B5480AAA013441
:108B10000EF0A6FC082CF3D1B24F9FEDB38A9FED67
:108B2000B39ADFEDB39AB34CDFF8B082A1460EF0F2
:108B300067FA0546002840F0858322783378DFF80D
:108B4000B4A29A4236D098F800B05FFA8BFBBBF122
:108B5000010F00F09181C0F0E680BBF1020F26D139
:108B600099F8003003F0FF05002B40F05C829C4830
:108B70009C493D607D60BD60FD603D617D610EF0A2
:108B80009FFC9D489D4911F04BFB9D4811F0E8FB6F
:108B9000994811F01DFB07210AA80EF0B9FA2946E1
:108BA0008F480AAA01350EF05BFC082DF3D123781B
:108BB000DBB233703F200EF033FA3378DBB2012B97
:108BC00033D029D3022BB2D18B4811F011FB0028EE
:108BD00040F081818B488C4912F012FC864887490D
:108BE00011F016FB844811F003FB00289BD0854848
:108BF000864912F005FC8348854912F001FC814842
:108C0000844912F0FDFB7F48834912F0F9FB7D484F
:108C1000824912F0F5FB86E781480FF079FA0F28B8
:108C200081D101238AF800307DE77D480FF070FA8A
:108C30000F2800F0FF817B4C0DF1160504F5A258BA
:108C400020460EF055FE04F52274444525F8020F27
:108C5000F6D10DF126000AAA0DF1160333F8021F12
:108C6000B1F5805F28BF4FF4805107EE901AF8EEFF
:108C7000677A834267EE887AE2EC017AEED10DF1F1
:108C800016050DF128080024E1B2032994BF043130
:108C90000439B8EC010A5FFA81F905A812F0C8FBA3
:108CA00049464F4805AA0EF0DBFB013455485E49A2
:108CB00035F8022F12F0A4FB082CE5D19FED4B7A7A
:108CC0005A4BF0EE476A12A90AAAF2EC017AD3EDE8
:108CD000005A93ED016A8A42E7EEA56A03F10803A0
:108CE000A7EE867AF1D19FED526A3D483D49F6EEF6
:108CF000007AF0EE675AE7EE065A00237B60E6EE54
:108D0000A97ABB60FB6035EE897A77EEA97ABDEE71
:108D1000C77AFDEEE77A87ED057AC7ED007A3B6109
:108D20000EF0CEFBFFE699F80030012B00F08680B4
:108D30003148324911F064FA31483E4911F020FBC4
:108D40000AA837210EF0E4F90AAA254807210EF0F7
:108D500087FB0AA837210EF0DBF90AAA294620482A
:108D60000EF07EFB0AA877210EF0D2F90AAA1C4861
:108D700004210EF075FB0AA877210EF0C9F90AAAA2
:108D8000174803210EF06CFB0AA809210EF0C0F968
:108D90000AAA134806210EF063FB0AA809210EF067
:108DA000B7F90AAA0E4805210EF05AFB0AA80921B4
:108DB0000EF0AEF90AAA0A4801210EF051FB0AA8EA
:108DC00009210EF0A5F9064802210AAA0EF048FB77
:108DD0000C48194912F014FBE9E600BFD81C00202A
:108DE00068560020281F0020000080390000000085
:108DF0000050C347901A0020981A0020741A0020CF
:108E0000E01C002030560020B87D0208C87D020812
:108E1000186B0208E07D0208F47D0208107E02084B
:108E200048530020F03E0020AC7D0208F07C020890
:108E30000024744980790208307D02088F210AA835
:108E40000EF066F92946C5480AAA01350EF008FB5E
:108E5000082DF3D14FF47A700EF0E2F800250721C7
:108E60000AA80EF055F92946BC480AAA01350EF0A9
:108E7000F7FA082DF3D19AE699F8003003F0FF05D0
:108E8000002B40F0C980B548B5493D607D60BD60AC
:108E9000FD603D617D610EF013FB71210AA80EF0AB
:108EA00037F92946AD480AAA01350EF0D9FA082D3E
:108EB000F3D14FF47A700EF0B3F8002507210AA819
:108EC0000EF026F92946A5480AAA01350EF0C8FA7F
:108ED000082DF3D16BE6A34811F0AAF9B0F9000010
:108EE00008EE900AF8EEE88A9E48CDED0A8A11F065
:108EF0009FF9B0F902000AEE100AB8EECAAA994822
:108F00008DED0BAA11F094F9B0F904000AEE900A65
:108F1000F8EEEAAA9348CDED0CAA11F091F9437846
:108F20005A0700F18B80904B9049D3ED006ADFED3A
:108F3000905AF7EE007A37EEE66AB0EE677A87EE7F
:108F4000866A0AAB0022BFEE005AF1EC017A78EE95
:108F5000E77AC7EEA57AF4EEC77AF1EE10FA41DDB2
:108F6000F4EEC76AF1EE10FA83ED007A0FDCF7EE4B
:108F7000007A77EEE67AC3ED007A67EE867A0432FD
:108F80000C2AE3EC017A0DD0D3ED008ADDE7DFEDAA
:108F9000797A83ED009A67EE867A04320C2AE3EC44
:108FA000017AF1D16F4811F04BF94378DB0740F1BA
:108FB0000A81714C2378012B00F01181022B05D11D
:108FC0006E4B93F90030012B00F0518100233B6080
:108FD0007B60BB60FB603B617B61604860490EF079
:108FE0006FFAA0E5F4EEC57AF1EE10FA00F11F81F8
:108FF000F0EEE74AF4EEE64AF1EE10FAC3ED007A3D
:10900000C5D4F5EEC07AF1EE10FAB2DCB5D577EE44
:10901000A67AC3ED007AB0E759485A4912F0F0F940
:1090200089F800B0C3E55648574912F0E9F989F8C4
:1090300000B0BCE500238AF8003074E518EE900A11
:1090400006F00AF904461AEE100A0D4606F004F975
:10905000CDE900011AEE900A06F0FEF82246CDE9AD
:1090600002012B464648494912F0CAF9F0EEE87A67
:10907000B0EECA7AF4EEC77AF1EE10FAF0EEEA6AD0
:109080005DDDF4EEE67AF1EE10FA58DD3A4C00239D
:1090900023702278354DDFED3E6AC5ED008A9200DF
:1090A00012AB134413ED087A85ED01AAB5EEC07A30
:1090B0002A44C5ED02AADFED2E7A92ED007A2F4BFD
:1090C0002F483449F1EE10FAA8BFF0EE667A77EE39
:1090D000877AACBF4FF0010E4FF0FF0E83F800E02F
:1090E000C2ED007A12F08CF92378002B00F0BD80DD
:1090F000012B14BF5A2259222148274912F080F926
:10910000D5ED007A1E482549FDEEE77A17EE902A44
:1091100012F076F9D5ED017A19482149FDEEE77A8A
:1091200017EE902A12F06CF9D5ED027A14481D4919
:10913000FDEEE77A17EE902A12F062F9F3E6F4EE0C
:10914000C77AF1EE10FA2FD5B4EEE67AF1EE10FA06
:109150002ADD094C012323709BE700BF68560020DD
:10916000281F0020981A0020181F00201C1F002014
:109170000000C84200000000180800201908002064
:1091800030560020587D0208847D0208247E0208A3
:109190000000C8C2347E0208507E0208687E0208C1
:1091A000747E0208807E0208F4EEE67AF1EE10FA90
:1091B00059D5B4EEE67AF1EE10FA2E4C7FF569AF90
:1091C0000223237065E72C4811F03AF80378DB0995
:1091D0003FF4FDAE274C2378012B7FF4EFAE274BF5
:1091E00093F9002001327FF4ECAEDDED0C7A9DEDB9
:1091F0000A5A9FED236ADFED236AF5EEC07AF1EE9D
:1092000010FAF7EE005ABFEE007A25EE066A48BF64
:10921000B0EE657A26EE077A67EEA67ABDEEC77ADB
:10922000FDEEE77A87ED057AC7ED007AD5E6F4EE34
:10923000C76AF1EE10FA83ED005A3FF7A8AEFFEED1
:10924000007AE4E60024104810493C607C60BC6071
:10925000FC603C617C610EF033F9204613B0BDEC3C
:10926000068BBDE8F08F034C13E7582244E7DDED91
:109270000B7ABCE718080020981A00201908002073
:1092800062BFBF4A0024F44868560020281F00200F
:1092900038B5084C084B094D09481D60214603228A
:1092A0005D6010F05DFE214606480322BDE83840AF
:1092B00010F0CEBFD0340020881A0020A086010014
:1092C000981A0020E01C0020AFF30080AFF300806C
:1092D0002DE9F04F87B009F0A3FD0DF009FE80489D
:1092E00080490AF0E5F97E487F4912F039FA7C4856
:1092F0007E4912F035FA7E4B7E4A1B68934200F09D
:1093000019827D4A934240F010827C4B74481A685F
:10931000009213467A4912F023FA7A497048714D47
:1093200012F01EFA0A200DF07BFE7E2202A876497A
:1093300011F0A6FF754805F10C010AF0D9F8734841
:1093400001210AF025F97248002109F0A1FD7148B8
:10935000714909F075FF0A200B210CF0F1FF08207C
:1093600009210CF0EDFF05F54C70A0F53C710EF0F5
:1093700017F905F54E7006ACA0F53B710EF010F92B
:10938000002324F8043D0CE0644812F0E9F90120C0
:109390000CF0B6FF082009210DF04AF800200CF06F
:1093A000AFFF02215E4822460FF072F95D490028A6
:1093B000EAD10BE012F0D4F901200CF0A1FF0A2051
:1093C0000B210DF035F800200CF09AFF02215648D1
:1093D00022460FF05DF9064654495048002EE9D167
:1093E00053480EF05DFD06A9514801F8056D0EF0D9
:1093F000AFFD002840F0948139484E499DF8132074
:1094000012F0AEF93648384912F0AAF940224FF46A
:10941000AB6149480DF0BCFB9FED480ADFED480AFF
:109420000A210446404813F05BFF3D489FED450A82
:10943000F7EE080A642113F053FF43489FED410AF9
:10944000F7EE080A642113F04BFF40489FED3D0AF8
:10945000F7EE080A642113F043FF3D489FED390AF7
:10946000F7EE080A642113F03BFF02A839494022B5
:109470000EF0E6F900238DF813304FF4227606FB48
:10948000035303F56471D3F8903302A89B6840221C
:1094900098479DF813300133DBB2042B8DF813305D
:1094A000EDD900238DF813304FF4287606FB0353D3
:1094B00003F5815303F11801103302A89B68402281
:1094C0009B6898479DF813300133DBB2012B8DF870
:1094D0001330EBD900228DF813204FF422773CE0B3
:1094E000F4180020401F0020186B02088891020821
:1094F000C00100084C422D41009966FFC4010008DC
:10950000048B0208A491020868560020E01800208D
:10951000FC170020681800201C080020305600208E
:1095200050250020B4910208C8220020FC910208B6
:10953000BC2200204C830208807F0208CDCCCC3DA9
:109540009A99993D0AD7233CD8270020602A002009
:10955000E82C0020D01F00201A467B4E0DF116018A
:1095600006F55F700EF044FD9DF81300BDF816106F
:1095700007FB005000F5FD5010300EF0A1F99DF8EA
:10958000133007FB035303F5FD53103319461B68D3
:1095900002A89B68402298479DF813300133DBB244
:1095A000072B8DF81330D7D9684811F0E9F86848CF
:1095B000A0F118010EF0B4FD02A8654940220EF09A
:1095C0003FF9644B009303F108004022624B4FF4D3
:1095D000AB6108F015FC43F6AC32604BB0504FF471
:1095E00080529A611A69D204FCD55D4E5D4DDFF858
:1095F000BCA15D4FDFF86481DFF8B491002C31D05D
:1096000094F820300E2B3DD001200CF079FEFA208A
:109610000DF006FD00200CF073FEFA200DF000FDA9
:1096200033684F4A0BB1002313602B68DFF834B165
:10963000002BE3D04D4B1B68BB4228D04B4519D1C2
:109640004B4B1B682BB94B4B1B68022B57D0032B82
:109650005DD02A684848494912F082F800232B60FF
:10966000002CCDD146484FF4AB6140220DF090FA6A
:109670000446C9E74048434912F072F80023CBF88A
:109680000030BBE7204608F08BFC0024BCE7384BD9
:1096900059780129DDD19B78012BDAD8DBF800302D
:1096A000013B042BD5D8384A52F823302F4A934235
:1096B000CFD9D3F800B03048BBF1000F19D03349EF
:1096C00012F04EF84FF000524FF08051C8F81810C9
:1096D0002948C8F818202E4912F042F813F018F95A
:1096E0002C49254812F03CF80A200DF099FCD84787
:1096F00084E7294912F034F8C5F800B07EE7DBF8BA
:109700000030013B042BA4D85AF82330CEE7DBF815
:109710000030013B042B9CD8204A52F82330C5E787
:1097200015481F4912F01CF86CE613481D4912F049
:1097300017F8F2E50E4910484A788B78C9780091FD
:10974000194912F00DF8E8E5401F0020D034002040
:1097500048530020E85A0020E16F01080008024049
:10976000586000205C6000204C422D41C001000880
:10977000C4010008C8010008F4180020149302086E
:10978000807F02085C920208A0940208C09202083E
:10979000E49202080C930208949202088094020852
:1097A000449202081C8B0208048B02086094020891
:1097B000009966FFAFF30080AFF30080AFF3008045
:1097C00010B5074C074B084A1A6020465A6012F041
:1097D000AFFE20460549064ABDE8104013F060BFC1
:1097E000401F002050600020A086010091D3010896
:1097F000081A0020AFF30080AFF30080AFF30080C1
:1098000070B44C1E4A2C2CD8DFE804F03C3C3C3CA5
:109810002B2B2B2B26263C262626262626262626BE
:109820002626262B27272727272727273C262626B5
:1098300026262B26273D3C2B3C27273D2B2B262657
:109840003C3C3C3C3C263C3C263C2B2B2626262BF9
:109850002B2B2626263C3C00CAB144698569AC42C4
:1098600002DB002070BC704704EB4405066901343C
:10987000AD00446174190CD071556260A36020463C
:1098800070BC70471AB1002BE7D11846EAE71046C2
:10989000E8E72046E6E700BF30B443698469A342A5
:1098A00009DA03EB430405690133A40043612B1972
:1098B00001D001B112B9002030BC704700202855FA
:1098C00059609A60184630BC704700BF2DE9F041DE
:1098D000C5680446884617462B780E4617E0562B77
:1098E00022D04B2B2DD1236B0135002F03F1060322
:1098F000E56023630CBF1B211E2100221346204676
:10990000FFF77EFF3060D0B1E5682B78061D722B23
:10991000E5D1236B0135002F03F10903E5602363D3
:109920000CBF19211C21E8E7236B0135002F03F13F
:109930000903E56023630CBF1A211D21DDE7BDE8A3
:10994000F081BFB9462B15D1464513D01D241E20EA
:109950001C2108E01B2A10D0192A00D1197003F12C
:109960000408464506D0D8F800301A781A2AF1D1F2
:109970001C70F4E73046BDE8F0811870EFE700BFD7
:1099800010B4C4682378522B0A4610D04F2B03D052
:1099900008465DF8044B7047036B033303632021D3
:1099A0000134C46000235DF8044BFFF729BF036B4B
:1099B000023303631F21F3E72DE9F0410F46C1682D
:1099C0000C782E2C804627D00B462E2C14D15C7898
:1099D000303C092C10D89C78A4F13002092A03F1FC
:1099E000020017D8DD1C2B4601351C78A4F1300687
:1099F000092EF8D92E2CEAD05A1AC8F80C30404655
:109A0000FFF74AFF3A4603464B214046BDE8F04186
:109A1000FFF7F6BE0346D8E74B78A3F16102192A97
:109A20000AD88A1C134601321C78A4F16100192857
:109A3000F8D95F2CF6D0C8E75F2BC5D1F1E700BF9E
:109A40002DE9F003C2681378532B03D00020BDE842
:109A5000F0037047531CC3605378ABB1931CC360D1
:109A600053785F2B52D10021036A9942EED2836A68
:109A7000C26901338362BDE8F00352F821007047E8
:109A8000A3F14102192A46D9826812076AD4002933
:109A90006AD13F4A02F1C40502E01C32AA42D5D085
:109AA00014789C42F9D15569002D6AD043698469C4
:109AB000D2F81880A34262DA03EB4307D0F810C053
:109AC000BF0001331CEB070643615FD04FF018095C
:109AD0000CF8079037467560C6F80880C762002901
:109AE0004AD0D5681269016BA34211440163ADDA13
:109AF00003EB43010469013389004361631843D0D8
:109B00001820605418465D609A60A0E7A3F1300504
:109B1000EAB2092AB4D8002212E002EBC20103EB38
:109B20008103A3F130018A4290D8C2681378541C93
:109B30001BB1C46013785F2B12D0A3F130050A4625
:109B4000E9B2A3F141040929E4B2E6D9192C3FF6A0
:109B50007DAF02EBC20103EB8103A3F13701E2E722
:109B6000013181E7012194E7C26811784339012965
:109B70008CBF002101218CE755689268B3E700276C
:109B8000ACE784694369AAE7184660E73746A5E76A
:109B90003053020870B50D46D0F80011FF29044675
:109BA00006D04A1CC4F80021655484F8045170BDE5
:109BB0000026D0F80831D0F80C2180F8FF609847D3
:109BC000D4F8203131465A1CC4F820210122C4F8AF
:109BD0000021655484F8045170BD00BF70B4026860
:109BE00013786E2B054618D00026A3F13002092AFF
:109BF00018D82A680020013200EB80042A6003EBA9
:109C0000440412F8013BA3F130010929A4F130000A
:109C1000F2D906B1404270BC7047531C03605378C0
:109C20000126E2E70020F4E743698269934210B518
:109C300013DA03EB43020169920001338C1843618C
:109C400008D040238B540C30FFF7C8FF23466060D8
:109C5000184610BD2346184610BD0023184610BDF7
:109C600010B5C3681A785F2A04460BD06E2A06D056
:109C70000C30FFF7B3FFE3681A785F2A06D04FF085
:109C8000FF3010BD00200133E36010BD0130FAE762
:109C900038B5C3681A78542A044601D0002038BD6C
:109CA0000133C360FFF7DCFF051EF7DBA16A6369C0
:109CB000A26901319342A162F0DA03EB4302216908
:109CC0000133920063618B18E8D005248C545D60E9
:109CD000184638BD08B5C3681A785F2A01D001203C
:109CE00008BD013340F80C3FFFF778FFC043C00FB9
:109CF00008BD00BF70B504460C30FFF76FFF061EAD
:109D000032DDE56863685B1B9E422FDCA268AB19FD
:109D10005207E36015D4092E0CDD284614490822A9
:109D200015F0D6F930B92B7A2E2B10D05F2B0ED030
:109D3000242B0CD0294632462046FFF7ADFDE062C9
:109D400070BDAA5D242A04BF0133E360E3E76B7AA8
:109D50004E2BEFD1236B074916339E1B26632046FB
:109D60001522FFF799FDEAE7002070BD0020E6E725
:109D7000E0970208EC97020838B5044629B9C36891
:109D80001A7832B15A1CC2601978682912D0762923
:109D900001D0002038BD04F10C052846FFF71EFF56
:109DA000E3681A785F2AF4D10133E3602846FFF7AD
:109DB00015FF03E004F10C00FFF710FFE3681A78C9
:109DC0005F2AE6D10133E360012038BDD0F81031BD
:109DD0000246C3B15A680B68906870B102782F2AA6
:109DE0000DD1002B04DC09E002782F2A07D143B102
:109DF0008068013B0028F7D17047704701D00020F0
:109E000070474068704701211846C2F81811704722
:109E100038B50C46054691B323784A2B27D8DFE89E
:109E200003F02E26262626302E2B2B262626262607
:109E3000262626262626262626262E2626262626BA
:109E40002626262626262626262E262626262626AA
:109E50002626262E2B262626262626262626262695
:109E6000262E262626262E262E26262E2E0028466E
:109E70006168FFF7CDFF18B9A468002CCCD1002091
:109E800038BD2846211DFFF7A1FF0028F7D0037831
:109E90002F2BF4D138BD00BFF0B55368946801335F
:109EA0000B44A34283B015460E46074613D8EC6810
:109EB0000CB103B0F0BD95E80900324639461844AC
:109EC00006F036FC95E80C003244D4546B681E440E
:109ED0006E6003B0F0BDD268002AEAD11CB9022B33
:109EE0004FF0020402D96400A342FCD8286821463E
:109EF00015F016FA034610B12860AC60D7E7286861
:109F0000019314F0F5FD019B2B6001226B60AB60A7
:109F1000EA60CEE72DE9F041C3681A784C2A05467D
:109F200002D00020BDE8F0815A1CC26059785F2938
:109F30003AD05A290DD10132EA602846002100F0BA
:109F4000F3FDEA681378452BEBD10132EA60BDE8F6
:109F5000F08100F003FA07460028E2D00378272BAF
:109F600033D0E9680B786E2B28D04FF03B08452B97
:109F700034D0002BD5D04B1C01E0002CD1D0EB60AD
:109F80001E4613F8014B452CF7D1721A2846FFF7ED
:109F900083FC3A46034641462846FFF731FCEA680F
:109FA0001378452BBDD1D0E79A1CC2609B785A2B01
:109FB000C1D0452B4FF00000B3D1C6E74A1CEA6080
:109FC0004B784FF03C081146D1E743681A7C002AD1
:109FD000C7D05A682B6B9B1A2B63C2E70022D5E7C8
:109FE000F0B5C168C76A0B78493B012B83B00446C2
:109FF0001ED84A1CC2604B78452B45D002AE0021CA
:10A0000046F8041D493B0F2B35D8DFE803F02F2F0E
:10A010003414343434343434343434343408013281
:10A02000E260204601F06CFAE3681A78452A27D0EE
:10A03000002003B0F0BD2046FFF76CFF0546204628
:10A040002F212A460023002DF2D0FFF7D9FB3060E4
:10A0500000F108060028EBD0E2681378452BD1D137
:10A060000198E7620132E26003B0F0BD2046FFF7DD
:10A07000B7FF0546E3E7204600F070F90546DEE746
:10A080000133E3600546DAE702310022C16013467E
:10A090002F2103B0BDE8F040FFF7B2BB2DE9F0413E
:10A0A000C26813784C3B82B005460E2B6DD8DFE8B2
:10A0B00003F02C6C316C6C6C6C176C2C6C6C6C6CD5
:10A0C000080001320021C26000F02EFDEB68197813
:10A0D0004529064600F0D180002002B0BDE8F0819D
:10A0E0005378742B69D00021FFF7AAFCEB681B782A
:10A0F000492B044650D12846FFF772FF22460346FB
:10A1000004212846FFF77CFB01E001F0BBF802B018
:10A11000BDE8F0810132C26001A90122FFF7D6FB40
:10A1200007460028D8D028460021FFF729FCEB6815
:10A130001C7880460026002C00F08E80442C00F015
:10A140008280A4F13002D2B2092A5CD9A4F1610262
:10A15000D2B2192A57D9432C55D0552C53D04C2C58
:10A1600051D0532C00F08480492C7AD0542C00F02C
:10A17000B380452C00F0D8804D2C6DD1002E6BD0D3
:10A180005A1CEA605C781346D5E701F07BF8EB686F
:10A190001B78492B044603D0204602B0BDE8F0816D
:10A1A000002899D02B6A6A6A934295DAEA69591CA9
:10A1B00042F82300284629629EE702326549C260C0
:10A1C0000322FFF769FB0446284601F05BF82246AC
:10A1D000034601212846FFF713FB2A6BEB68033285
:10A1E0002A631B78492B0446D6D100283FF474AF6C
:10A1F0002B6A6A6A9342BFF66FAFEA69591C42F84C
:10A200002300296277E7284601F03CF8CEB101210E
:10A21000324603462846FFF7F3FA0646EB68532C0E
:10A220001C7888D0452C8CD0B6B12B6A6A6A9342D0
:10A2300012DAEA6942F823605A1CEB682A621C7839
:10A2400079E70646EAE75B7803F0DF03542BDAD1BF
:10A25000284600F083F8D9E70020386002B0BDE856
:10A26000F081002EF8D02846FFF7BAFE0421CFE790
:10A2700028460121FFF7E4FBC8E75A1CEA605A7838
:10A28000732A3DD0642A2BD04FF0FF372846FFF7C2
:10A2900005FF044620B10378442B01D0462B29D179
:10A2A0007B1C25D06B69AA69934213DA03EB430246
:10A2B0002969013392006B618B1803D045208854C3
:10A2C0009F605C60284632460221FFF799FA02B08F
:10A2D000BDE8F0810023F5E72846FFF7D9FC95E7B4
:10A2E0000233EB602846FFF7BBFC071ECEDAF3E62D
:10A2F0002346E7E72846FFF7EDFC0028D0D1EBE640
:10A300000233EB602846FFF7E5FC00283FF4E4AE9B
:10A31000284611490E22FFF7BFFA324603460221B2
:10A320002846FFF76DFAF2E63E60002E3FF4D4AE09
:10A33000B8F1000F04D0019BC8F80430CDF80480B8
:10A34000EB681A78452A7FF4C7AE0133EB600198B9
:10A35000DDE600BF1498020804980208F0B5C26850
:10A360001378722B83B0044654D0562B52D04B2B0B
:10A3700050D0A3F130014A297DD8DFE811F0A200C6
:10A38000A200A200A200A200A200A200A200A200BD
:10A39000A2007C007C007C007C007C007C007C00B7
:10A3A000A7007C00CF00FF007C00DC00F2007C00F6
:10A3B0007C007C007C007C007101A200C101A7012F
:10A3C0007C00B401CE01EF0107027C007C007C0020
:10A3D0007C00A2007C007C007C007C007C007C0077
:10A3E000180218021802180218021802180218029D
:10A3F000180218027C0018021802180218027C00C9
:10A400007C007C0018021802890018021802180249
:10A4100018021802204601A90022FFF757FA054644
:10A4200048B32046FFF79AFF286020B302781F3A0E
:10A43000012A23D9019AF2B1236A616A8B421ADA9E
:10A44000E16941F8232001985D1C256203B0F0BD4D
:10A45000204601F055F84121024600232046FFF72F
:10A46000CFF9019038B1E3681A7822B15A1CE26042
:10A470001B78452B1AD0002003B0F0BD019A41682B
:10A4800042602B6801932960019A002AD4D1F2E737
:10A490000132E2602046FFF72DFC2821024600230E
:10A4A0002046FFF7ADF901900028E4D0236A626AE4
:10A4B0009342E0DAE269591C42F8230001982162D4
:10A4C000DAE72046FFF7EAFD0190EDE7511CE16075
:10A4D00053785F2B00F07982303B092B00F27E82AB
:10A4E0000A460132E2601378303B092BF9D9521A3F
:10A4F0002046FFF7D1F90546002830D0E1680B78F7
:10A500005F2B2CD10131E1602046FFF727FF2A465F
:10A5100003462A212046FFF773F9D5E70132E260AE
:10A520002046FFF71BFF2521024600232046FFF7A8
:10A5300067F90190B8E7531CE3605378592B04BFC7
:10A540000232E2600121204600F0D0FA01462046A6
:10A55000FFF716FAE3681A78452A00F03C820020DB
:10A56000B2E70132E2602046FFF7F8FE26210246FC
:10A5700000232046FFF744F9019095E7531CE36060
:10A580005378002B3FF477AF931CE3605378463B3E
:10A59000302B3FF670AF01A151F823F0B5A80008A9
:10A5A00077A4000877A4000877A4000877A400081F
:10A5B00077A4000877A4000877A4000877A400080F
:10A5C00077A4000877A4000877A4000877A40008FF
:10A5D00077A4000851A4000877A4000877A4000815
:10A5E00077A4000877A4000877A4000877A40008DF
:10A5F00077A4000877A4000877A4000877A40008CF
:10A6000077A4000877A40008A9A8000877A4000888
:10A6100077A4000881A8000859A8000831A80008FC
:10A6200077A4000809A80008D9A7000877A40008A3
:10A6300077A4000877A4000877A400088DA9000873
:10A6400077A4000877A9000877A4000877A4000879
:10A6500053A9000851A4000877A400081BA900080A
:10A660000132E2602046FFF779FE01AE074631462F
:10A6700020460122FFF72AF9054600283FF46FAF74
:10A680002046FFF76BFE286000283FF468AFB54214
:10A6900015D00178A1F11F02012A40F2A7812929D2
:10A6A0000DD0019A002A3FF45AAF236A616A8B42A7
:10A6B000BFF655AFE169581C41F8232020623A46A5
:10A6C00020462B21019BFFF79BF8FDE60132E2605B
:10A6D0002046FFF743FE2221024600232046FFF7D3
:10A6E0008FF80190E0E60132E2602046FFF736FE87
:10A6F0002321024600232046FFF782F80190D3E68B
:10A700000132E2602046FFF729FE242102460023A1
:10A710002046FFF775F80190C6E65378A3F13002A2
:10A72000092A05D95F2B03D0413B192B00F2668122
:10A7300020460021FFF784F9E36801901B78492B3C
:10A7400005467FF499AE2046FFF74AFC2A460346A9
:10A7500004212046FFF754F80190A5E62046FFF7B4
:10A7600097FAE36801901B78492B7FF49DAE00288F
:10A770003FF481AE236A626A9342BFF67CAEE2691F
:10A78000591C42F82300019D2162DCE70132E2609E
:10A790002046FFF7AFFA01902046FFF7DFFD2121A9
:10A7A0000246019B2046FFF72BF801907CE6616989
:10A7B000A069A34D613B03EB8303814205EB830357
:10A7C000C0F2F680002318465B685968236B01329B
:10A7D0000B44E26023634FE66369A269934280F20F
:10A7E000F68003EB4302216992000133881863610C
:10A7F00000F02181934D27238B542B4645605A68E6
:10A80000236B1344236337E66369A269934280F2A2
:10A81000DE8003EB430221699200013388186361F3
:10A8200000F00981884D27238B542B464560E6E7CD
:10A830006369A269934280F2CA8003EB43022169F3
:10A84000920001338818636100F0F5807F4D272363
:10A850008B542B464560D2E76369A269934280F22C
:10A86000B68003EB430221699200013388186361CB
:10A8700000F0E180764D27238B542B464560BEE7E0
:10A880006369A269934280F2A28003EB43022169CB
:10A89000920001338818636100F0CD806D4D27234D
:10A8A0008B542B464560AAE720466B490422FEF7ED
:10A8B000F3FFE1E56369A1698B4280F2AB80216916
:10A8C00003EB4305013301EB850563612C230195FF
:10A8D0002B709378303B092B8CBF002301232B81F5
:10A8E000002B40F099802046FFF738FD6860019BFF
:10A8F0005B68002B3FF4BFAD04F10C00FFF76EF96D
:10A90000E3681A7832B15A1CE2601A78B2F1730324
:10A910005A425A4101984281AEE593785F2B00F08C
:10A9200081802046FFF780F90546002D00F08180E8
:10A93000E3681A785F2A7FF412AE0133E3602046A1
:10A94000FFF70CFD2A4603462D212046FEF758FF4F
:10A95000BAE56369A269934239DA03EB43022169DC
:10A96000920001338818636165D03C4D27238B54D6
:10A970002B46456043E72046FFF7F0FC492102469D
:10A9800000232046FEF73CFF01908DE56369A26934
:10A9900093421CDA03EB43022169920001338818C9
:10A9A000636148D02E4D27238B542B46456026E704
:10A9B00001EB4100256901318000616129183CD01B
:10A9C00027262E5408464B60FFE600259AE5002313
:10A9D00018465B6813E70133E36075E5204600F035
:10A9E0008FFD054600287FF489ADB8E501994268DE
:10A9F00041602B68019311782A6050E62046FFF7EA
:10AA00004DFB019000283FF436AD0378182B7FF4FE
:10AA10004DAD31E5002559E704F10C00FFF7DEF8F4
:10AA2000019D60E70332E260204600F069FD0546C3
:10AA30007BE7284648E54368E1E64B680846C4E6FC
:10AA4000F45302086056020838560208FC55020802
:10AA50002456020810560208189802084C5602089C
:10AA60007456020870B582B00023C16801930B7858
:10AA700004464BB3452B27D02E2B25D001AE17E033
:10AA80004F2B17D02046FFF769FC05462E212046A4
:10AA90002A460023C5B1FEF7B3FE3060A0B1E168DD
:10AAA0000B7800F1080643B1452B06D02E2B04D0BD
:10AAB000522BE5D14B78452BE4D1019B23B19A6809
:10AAC0002AB1184602B070BD002002B070BD5968AE
:10AAD00008782728F5D14968087C0928F1D1486809
:10AAE000216B091A216318465A60EBE770B5C368F9
:10AAF0001A784A2A04460DD071B90D462046FFF750
:10AB0000B1FF034670B120462A462921BDE87040B6
:10AB1000FEF776BE0133C3602046FFF71FFC0546F3
:10AB20000028EBD1002070BD2DE9F047C3681A78EA
:10AB3000472A05460E4634D0542A32D0FFF7AEFAE3
:10AB4000044658B316B1AB68DB071FD5EB681B781A
:10AB500023B3452B22D021460B78042BA3F11C02F2
:10AB600000F0A480C0F0A080042A00F29D80496813
:10AB70000029F1D12846FFF7B9FF224603460321F9
:10AB80002846BDE8F047FEF73BBE64682378A3F192
:10AB90001C02042AF9D9022B00F06E812046BDE880
:10ABA000F087296B01F114022A631A78542A05D020
:10ABB000472A00F0ED800020BDE8F0875A1CEA60CB
:10ABC0005A78002AF7D09A1CEA605B78433B332B13
:10ABD000F1D801A252F823F0E5B00008B7AB0008A5
:10ABE000B7AB0008CFB00008B7AB0008B9B0000899
:10ABF000A3B000088DB00008B7AB0008B7AB0008E1
:10AC0000B7AB0008B7AB0008B7AB0008B7AB00089C
:10AC1000B7AB0008B7AB000877B000085DB000081C
:10AC2000B7AB000843B0000807B00008B7AB000896
:10AC3000B7AB0008B7AB0008B7AB0008B7AB00086C
:10AC4000B7AB0008B7AB0008B7AB0008B7AB00085C
:10AC5000B7AB0008B7AB0008D3AF0008B7AB00082C
:10AC6000B7AB0008B7AB0008B7AB00081DB00008D1
:10AC7000B7AB0008B7AB0008B7AB0008B7AB00082C
:10AC8000B7AB0008B7AB0008B7AB0008B7AB00081C
:10AC9000B7AB0008B7AB0008B7AB0008B7AB00080C
:10ACA000B7AB0008ADAF0008002163E74B68002B8D
:10ACB00000F0F4801A78013A322A00F2EF8001A104
:10ACC00051F822F095AE000895AE00089DAE000840
:10ACD0009DAE00089DAE00089DAE0008A9AC00081E
:10ACE000A9AC00089DAE00089DAE00089DAE00080E
:10ACF0009DAE00089DAE00089DAE00089DAE000808
:10AD00009DAE00089DAE00089DAE00089DAE0008F7
:10AD10009DAE00089DAE00089DAE00089DAE0008E7
:10AD20009DAE00089DAE00089DAE00089DAE0008D7
:10AD30009DAE00089DAE00089DAE00089DAE0008C7
:10AD40009DAE00089DAE00089DAE00089DAE0008B7
:10AD50009DAE00089DAE00089DAE00089DAE0008A7
:10AD60009DAE00089DAE00089DAE00089DAE000897
:10AD70009DAE00089DAE00089DAE00089DAE000887
:10AD80009DAE00089DAE00089DAE0008A9AC00086D
:10AD90005A1CEA605A78002A3FF40DAF9A1CEA6008
:10ADA0005A78413A312A3FF606AF01A151F822F014
:10ADB00069AF0008B7AB0008B7AB0008B7AB000835
:10ADC000B7AB0008B7AB0008B7AB0008B7AB0008DB
:10ADD000B7AB0008B7AB0008B7AB0008B7AB0008CB
:10ADE000B7AB0008B7AB0008B7AB0008B7AB0008BB
:10ADF000B7AB00084BAF0008B7AB000881AF000845
:10AE0000B7AB000835AF0008B7AB0008B7AB000818
:10AE1000B7AB0008B7AB0008B7AB0008B7AB00088A
:10AE2000B7AB0008B7AB0008B7AB0008B7AB00087A
:10AE3000B7AB0008B7AB0008B7AB0008B7AB00086A
:10AE4000B7AB0008B7AB0008B7AB0008B7AB00085A
:10AE5000B7AB0008B7AB0008B7AB0008B7AB00084A
:10AE6000B7AB0008B7AB0008B7AB0008B7AB00083A
:10AE7000B7AB0008A1AE0008A3681A781C3A042AF0
:10AE800004D85B681A781C3A042AFAD9A3602046D1
:10AE9000BDE8F0879B68002B7FF40CAF012169E6C9
:10AEA00005F10C00FEF79AFE01287FF784AEEB68EF
:10AEB0001A78002A3FF47FAE5E1CEE601B785F2B91
:10AEC0007FF479AE471E4FF000084FF03F0933780A
:10AED000002B3FF470AE242B00F024810024335D5E
:10AEE00023B1242B02D00134BC42F8DB3146284682
:10AEF0002246FEF7D1FCEE6826443F1BEE60002898
:10AF00003FF459AEB8F1000F00F0298142460346E4
:10AF10003E212846FEF774FC804600283FF44BAEE5
:10AF2000002FD4DC284642463D210023BDE8F047EF
:10AF3000FEF766BC2846FFF7B1F81321024600234E
:10AF40002846BDE8F047FEF75BBC2846FFF7A6F8A9
:10AF500004462846FEF768FE224603461621284688
:10AF6000BDE8F047FEF74CBC28460021FFF7DCFDAA
:10AF70001721024600232846BDE8F047FEF740BCF3
:10AF80009A7828460021002A00F0EB80DA1CEA605B
:10AF90009B786E2B40F0E580FFF7C6FD4821024606
:10AFA00000232846BDE8F047FEF72ABC2846762154
:10AFB000FEF7E2FE00283FF4FEAD28460021FFF731
:10AFC000B3FD1021024600232846BDE8F047FEF7F6
:10AFD00017BC28460021FEF7CFFE00283FF4EBAD5A
:10AFE00028460021FEF7C8FE00283FF4E4AD2846BD
:10AFF0000021FFF799FD1121024600232846BDE8F4
:10B00000F047FEF7FDBB2846FFF748F8152102463A
:10B0100000232846BDE8F047FEF7F2BB284668212A
:10B02000FEF7AAFE00283FF4C6AD28460021FFF730
:10B030007BFD0F21024600232846BDE8F047FEF7BE
:10B04000DFBB0F3129632846FFF788F90921024643
:10B0500000232846BDE8F047FEF7D2BB0A3129633A
:10B060002846FFF77BF90A21024600232846BDE85F
:10B07000F047FEF7C5BB2846FFF770F90D210246E1
:10B0800000232846BDE8F047FEF7BABB2846FFF785
:10B0900065F91221024600232846BDE8F047FEF775
:10B0A000AFBB2846FFF75AF90C2102460023284679
:10B0B000BDE8F047FEF7A4BB2846FEF7EFFF1421DA
:10B0C000024600232846BDE8F047FEF799BB284614
:10B0D000FFF744F90E21024600232846BDE8F04759
:10B0E000FEF78EBB2846FFF739F9044605F10C0040
:10B0F000FEF774FD0028FFF65EADEA6811785F295F
:10B100007FF459AD0132EA602846FFF727F92B6B2F
:10B11000591D29630246234628460B21BDE8F04706
:10B12000FEF76EBB7378532B27D05F2B23D0242BD5
:10B130007FF441AD1C466B69AA6993421FDA2A6904
:10B14000581C03EB4301686112EB810017D002F831
:10B1500021904460EE680236023FEE60D2E68046FF
:10B16000DEE6FFF7E1FC4721024600232846BDE862
:10B17000F047FEF745BB2E24DDE72F24DBE7EB6825
:10B180000233EB6017E500BF2DE9F041C3681F787B
:10B1900080465FB35A1CC26058781F7818B19A1C59
:10B1A000C8F80C205878762F41D1A0F13004E3B2D2
:10B1B000092B1CD84046FEF79DFDD8F81430D8F86E
:10B1C0001820934201462FDA03EB4302D8F810000F
:10B1D00001339200C8F81430831825D021B33225EA
:10B1E00085545C6099601846BDE8F0813846244E6D
:10B1F0003D24002304E0BA4213D90C46A34213D0E5
:10B20000E21A02EBD27203EB62010A0106EB020CB6
:10B21000B5582A789742EED16A78904216D0824289
:10B22000EBD84B1CA342EBD10020BDE8F081632F8B
:10B23000DDD17628DBD14046FFF790F83321024676
:10B2400000234046BDE8F041FEF7DABAD8F81430E2
:10B25000D8F818209342E7DA03EB4302D8F810102D
:10B2600001339200C8F814308B1806D0312088546E
:10B27000C3F804C01846BDE8F0811846BDE8F08167
:10B2800088560208F8B5C2681378A3F1300109297D
:10B2900004462ED9A3F16101192933D9A3F1430141
:10B2A000012971D94C2B00F08780552B40F08F80FD
:10B2B00053786C2B30D0742B40F08980531CC360C2
:10B2C0005178742900F0C38042294FF0000517D14E
:10B2D0000133E3602046FEF70DFD2A4603464A216E
:10B2E0002046FEF78DFAE3681A78422A0546EFD029
:10B2F00006E0FEF7FFFCE368197805464229E7D02F
:10B300002846F8BDFFF740FF054610B10378312B02
:10B310005FD0E3681978F1E7531CC36051786C295A
:10B32000D2D10232C260FFF79DFBE36806460028D7
:10B3300000F0E18019784529C6D10133E360204649
:10B34000FEF78EFC0028C0F29C806369A2699342DC
:10B3500080F2978003EB43022169920001338D183C
:10B36000636100F08E8044238B546E60A860236A72
:10B37000626A934280F28580E26942F823505A1C47
:10B38000E36822621978B9E7C06A00283CD00178E6
:10B39000002937D1216B83680B442363117843293B
:10B3A00078D0442973D15378303B052B4DD8DFE852
:10B3B00003F0482D464C4C4A0132C260FEF79AFC1D
:10B3C000054620B12046FEF785FC0028A1D10020CB
:10B3D000F8BD4368226B9E681868484932440732BA
:10B3E000226305F045FA002893D12046FEF782FC3F
:10B3F0002A46034635212046FEF702FAE368054651
:10B4000019787BE71829C5D01946C8E70227616972
:10B41000A569931CA942E36037DA01EB410526696F
:10B420000131AD00616171192FD070B34FF0080C7C
:10B4300006F805C00D460F71886091785EE7032716
:10B44000E5E70127E3E70427E1E7002558E70232B3
:10B45000C260FEF705FC002813DB6369A269934212
:10B460000FDA03EB43022169920001338D18636107
:10B4700007D046238B546860236A626A9342FFF6C2
:10B480007BAFE3680025197838E70025D5E7134638
:10B49000002533E75378313B042BD6D801A151F86E
:10B4A00023F000BFEBB40008B9B40008F3B40008FF
:10B4B0004BB40008EFB4000802276169A569931C2A
:10B4C000A942E360E1DA01EB410526690131AD00F3
:10B4D00061617119D9D00028D7D04FF0070C06F858
:10B4E00005C00D460F718860A7E70127E5E704272F
:10B4F000E3E70327E1E705461978FFE6209802080D
:10B500002DE9F041C1680B784C2B044600F09E8079
:10B51000542B00F09F80732B57D0662B2DD0A3F1B6
:10B520003002092A0DD82046FFF7ACFE0546002858
:10B5300000F08380E3681B78492B00F0A380BDE80E
:10B54000F0816F2B7CD0692B00F0A780742B17D172
:10B550004B786C2B14D1FEF701FFE16805460231F0
:10B56000E1602046452100F0A9F92A460346302132
:10B570002046BDE8F041FEF743B94B78702B40D030
:10B580002046FFF701FE0546002856D00678312EEA
:10B5900064D0322E2BD0332E4FD10027E3681A7897
:10B5A0005F2A00F00D812046FFF7AAFF03462FB166
:10B5B0001A4620463721FEF723F9034620462A463D
:10B5C0003521BDE8F041FEF71BB94B78722B00F036
:10B5D000DE80702BD4D10231C160FFF791FF492189
:10B5E000024600232046BDE8F041FEF709B9436852
:10B5F0000027032B21D8DFE813F056003F019A0003
:10B600005E008B1CC3608B78542B00F0D580FEF756
:10B6100027FB451C11D06369A26993420DDA03EB45
:10B62000430221690133920063618B1805D0062023
:10B6300088545D601846BDE8F0810020BDE8F081C7
:10B640004B786E2B9CD10231C1606CE7BDE8F041B4
:10B65000FEF760BCBDE8F041FEF71ABBD0F80480ED
:10B66000236BD8F80820D8F800708F49023A1344A9
:10B670002363384605F0FCF8002800F0A980D8F8CC
:10B680000C30B6E72046FEF7ABFC2A460346042101
:10B690002046BDE8F041FEF7B3B84B786C2B7FF441
:10B6A0006FAF00255BE720462A4634210023BDE822
:10B6B000F041FEF7A5B838467C4905F0D9F80028D6
:10B6C00000F08A803B786E2BB7D17B78772B01D046
:10B6D000612BB2D15F21204600F0F0F806462046EB
:10B6E000FEF73CFEE1680B78452B074600F0A98089
:10B6F000702B00F0B580692B9FD14B786C2B9CD1BF
:10B700002046FFF7FDFE03463A4620463A21FEF763
:10B7100077F83246034639212046FEF771F82A466B
:10B72000034638212046BDE8F041FEF769B86B6852
:10B730001B685A78632A62D02046FFF7E1FE8046F4
:10B7400038465B4905F094F8002852D038465949EC
:10B7500005F08EF828B13846574905F089F80028D9
:10B760006AD12046FFF78EFDE3681B78492B064619
:10B770006BD04246334620463721FEF741F82A4631
:10B78000034636212046BDE8F041FEF739B80231C4
:10B79000C160FEF7E3FD05462046FFF773FDE16853
:10B7A000097849290646204636D02A4633460121E3
:10B7B000BDE8F041FEF724B80331C16000252AE757
:10B7C0000133E3602046452100F078F80346EEE6B9
:10B7D0002046FEF7C3FDF0E62046FFF791FE064641
:10B7E0002046FFF78DFE07462046FFF789FE0346F9
:10B7F0008AE72046452100F061F80646B9E71B7844
:10B80000A3F16302012A02D9723B012B94D820468E
:10B81000FEF7A4FD804693E7FEF7E2FB32460346BF
:10B8200004212046FDF7ECFF2A460346012120466D
:10B83000BDE8F041FDF7E4BF2046FFF761FE064694
:10B8400097E70131E16000235EE72046FEF7C8FB81
:10B850003246034604212046FDF7D2FF064688E71C
:10B860004B78692B7FF4E9AE0231E1602046452137
:10B8700000F024F8034647E72FB13B78702B06D041
:10B880006D2B04D00027332E7FF48DAE86E67A78B8
:10B890009A42F7D1E3681A785F2A01D00127F2E7CC
:10B8A0000133E3600027EEE7CC9C020830980208E1
:10B8B00024980208289802082C980208F0B5C3685A
:10B8C0000F46197883B00022B9420446019218BF8E
:10B8D00001AE0AD11BE0FDF793FF306000F10806CE
:10B8E00068B1E3681A78BA420CD02046FFF708FE28
:10B8F00005462E2120462A460023002DEBD10020AC
:10B9000003B0F0BD01980133E36003B0F0BD013333
:10B91000C3602E21134603B0BDE8F040FDF770BFB1
:10B920002DE9F041044608460D4613F0F1FF48B3F7
:10B93000D4F800112F184FF0000809E00B46BD4263
:10B9400001F10101C4F80011E65484F8046119D032
:10B95000FF2915F8016BF1D1D4F8083184F8FF8084
:10B96000D4F80C2120469847D4F820310133C4F88C
:10B97000203100230121BD42C4F80011E65484F8AF
:10B980000461E5D1BDE8F0812DE9F04F137897B05F
:10B99000154604460E464B2B01F28C81DFE813F06E
:10B9A0008804A803A8031F03F804E00461051A0330
:10B9B0000803E102BA0293026C022E020702E001C0
:10B9C000B90192016B0144011D01F600CF00A800EE
:10B9D00080006B006B006B004C004C004C004C0076
:10B9E0004C004C004C00ED08ED084C004C00BF082A
:10B9F0000F09B30742072507E2062507AE06AE0684
:10BA0000650915093E0998085B0547053B0536059C
:10BA100075067006700631063106FA05EF05E10578
:10BA2000B0058905710823084A088A09C807EE0786
:10BA300061040C04D503B504D4F8142116AB00211D
:10BA400043F8402DD4F810210795C4F8143108911B
:10BA500009926A682046314602F02CFA089B23B905
:10BA600031462A46204602F031FA069BC4F81431CA
:10BA700017B0BDE8F08FD0F814713A46002FDDD032
:10BA8000916841B951680978A1F11900022805D8D7
:10BA90008B4201F04F851268002AF1D13A46CDE77A
:10BAA0009768D2F80490002FE2D00025D0F800115A
:10BAB000A84609E00B4601310135AF42C4F8001138
:10BAC000E65484F80461D3D0FF2919F80560F1D158
:10BAD000D4F8083184F8FF80D4F80C212046984728
:10BAE000D4F820310133C4F8203101210023E3E7E9
:10BAF000D64FD0F8001107F1110A4FF000090AE003
:10BB00000B4601315745C4F8001104F8038084F84E
:10BB1000048101F00882FF2917F8018FF0D1D4F8D1
:10BB2000083184F8FF90D4F80C2120469847D4F8C7
:10BB300020310133C4F8203101210023E2E7C44F52
:10BB4000D0F8001107F1150A4FF000090AE00B4682
:10BB500001315745C4F8001104F8038084F80481CA
:10BB600001F0EC80FF2917F8018FF0D1D4F80831EB
:10BB700084F8FF90D4F80C2120469847D4F820315F
:10BB80000133C4F8203101210023E2E7B14FD0F89E
:10BB9000001107F1190A4FF000090AE00B460131C4
:10BBA0005745C4F8001104F8038084F8048101F0BB
:10BBB000B480FF2917F8018FF0D1D4F8083184F848
:10BBC000FF90D4F80C2120469847D4F82031013357
:10BBD000C4F8203101210023E2E79F4FD0F8001183
:10BBE00007F1160A4FF000090AE00B4601315745EC
:10BBF000C4F8001104F8038084F8048101F0D780B0
:10BC0000FF2917F8018FF0D1D4F8083184F8FF909C
:10BC1000D4F80C2120469847D4F820310133C4F8D9
:10BC2000203101210023E2E78C4FD0F8001107F109
:10BC3000130A4FF000090AE00B4601315745C4F8DA
:10BC4000001104F8038084F8048101F0A980FF2921
:10BC500017F8018FF0D1D4F8083184F8FF90D4F8A8
:10BC60000C2120469847D4F820310133C4F8203104
:10BC700001210023E2E77A4FD0F8001107F10F0A03
:10BC80004FF000090AE00B4601315745C4F8001196
:10BC900004F8038084F8048101F09080FF2917F8EC
:10BCA000018FF0D1D4F8083184F8FF90D4F80C213A
:10BCB00020469847D4F820310133C4F820310121BF
:10BCC0000023E2E7674FD0F8001107F11A0A4FF09E
:10BCD00000090AE00B4601315745C4F8001104F889
:10BCE000038084F8048101F01180FF2917F8018F87
:10BCF000F0D1D4F8083184F8FF90D4F80C21204614
:10BD00009847D4F820310133C4F8203101210023B1
:10BD1000E2E7554FD0F8001107F1110A4FF0000982
:10BD20000AE00B4601315745C4F8001104F80380BE
:10BD300084F8048101F0A580FF2917F8018FF0D164
:10BD4000D4F8083184F8FF90D4F80C2120469847A5
:10BD5000D4F820310133C4F8203101210023E2E777
:10BD6000424FD0F8001107F1150A4FF000090AE020
:10BD70000B4601315745C4F8001104F8038084F8DC
:10BD8000048101F07780FF2917F8018FF0D1D4F8F2
:10BD9000083184F8FF90D4F80C2120469847D4F855
:10BDA00020310133C4F8203101210023E2E7304F74
:10BDB000D0F8001107F1100A4FF000090AE00B4615
:10BDC00001315745C4F8001104F8038084F8048158
:10BDD00001F04980FF2917F8018FF0D1D4F808311C
:10BDE00084F8FF90D4F80C2120469847D4F82031ED
:10BDF0000133C4F8203101210023E2E71D4FD0F8C0
:10BE0000001107F1120A4FF000090AE00B46013158
:10BE10005745C4F8001104F8038084F8048101F048
:10BE20001B80FF2917F8018FF0D1D4F8083184F86E
:10BE3000FF90D4F80C2120469847D4F820310133E4
:10BE4000C4F8203101210023E2E700BF7B990208FA
:10BE500063990208479902082F9902081B99020862
:10BE60000B990208EF980208DB980208D79802089D
:10BE7000C3980208AF980208C94FD0F8001107F123
:10BE80000D0A4FF000090AE00B4601315745C4F88E
:10BE9000001104F8038084F8048100F0CF87FF29A3
:10BEA00017F8018FF0D1D4F8083184F8FF90D4F856
:10BEB0000C2120469847D4F820310133C4F82031B2
:10BEC00001210023E2E7B74FD0F8001107F1180A6B
:10BED0004FF000090AE00B4601315745C4F8001144
:10BEE00004F8038084F8048100F07D87FF2917F8A7
:10BEF000018FF0D1D4F8083184F8FF90D4F80C21E8
:10BF000020469847D4F820310133C4F8203101216C
:10BF10000023E2E7A44FD0F8001107F1080A4FF020
:10BF200000090AE00B4601315745C4F8001104F836
:10BF3000038084F8048100F04F87FF2917F8018FF0
:10BF4000F0D1D4F8083184F8FF90D4F80C212046C1
:10BF50009847D4F820310133C4F82031012100235F
:10BF6000E2E7924FD0F8001107F10B0A4FF00009F9
:10BF70000AE00B4601315745C4F8001104F803806C
:10BF800084F8048100F02187FF2917F8018FF0D190
:10BF9000D4F8083184F8FF90D4F80C212046984753
:10BFA000D4F820310133C4F8203101210023E2E725
:10BFB000D0F80011FF2901F0C4824A1C7E23C4F886
:10BFC0000021635484F804313146AA68204601F008
:10BFD00071FF4DE53146926801F06CFF48E50022A3
:10BFE000D0F81431C0F814216F680293002F01F0CB
:10BFF000038506A9D0F810A10191904694460B46FE
:10C0000039781A60A1F11C000428C4F814315F606B
:10C01000C3F808C0C3F80CA01A4608F1010803F1E0
:10C02000100340F24C86042901F0338602293DD1E9
:10C03000D7F808B09BF80030452B08BFDBF804B0F8
:10C040009BF800301C3B042B30D8B8F1040F01F0F2
:10C050007986019A234602EB081C294632465D4642
:10C06000564664468B469246994603E0B8F1040F63
:10C0700001F067861CE90F0084E80F00A4F11003AB
:10C08000236000230CE94800C9F814414CF80C5C0B
:10C090006D682B781C3B042B08F101080CF1100C87
:10C0A00004F11004E2D94C4656465D46AA68204683
:10C0B000314601F0FFFE3B78042B04BF049BC4F81B
:10C0C0001031B8F1000F0FD0019A474602EB081566
:10C0D0004FF02009B04655F8086C013F002E01F0E2
:10C0E0007784103D002FF6D10299C4F81411BFE4F3
:10C0F0003146526801F0DEFE16F0040940F0EC858E
:10C100002B4FD4F8001107F1020A0AE00B46013167
:10C110005745C4F8001104F8038084F8048100F046
:10C12000E785FF2917F8018FF0D1D4F8083184F89A
:10C13000FF90D4F80C2120469847D4F820310133E1
:10C14000C4F8203101210023E2E71A4F526831463A
:10C1500001F0B0FE07F1050AD4F800114FF0000914
:10C160000AE00B4601315745C4F8001104F803807A
:10C1700084F8048100F0B287FF2917F8018FF0D10D
:10C18000D4F8083184F8FF90D4F80C212046984761
:10C19000D4F820310133C4F8203101210023E2E733
:10C1A0009F9802087B9802086F980208639802081B
:10C1B0003B980208339802085168FDF729FE0028D1
:10C1C00001F06F854FF0000803782F2B40F0CA87ED
:10C1D0004368002B00F0C687806808F1010800283A
:10C1E000F2D16D680195002708F1FF33DFF8CCA389
:10C1F0000293B946C4F81C7120463146019A01F0F9
:10C2000059FE029BBB4228DDD4F80011DFF8B0B321
:10C2100009E00B46D34501F10101C4F80011E554D2
:10C2200084F8045119D0FF291BF8015FF1D1D4F82B
:10C23000083184F8FF90D4F80C2120469847D4F8B0
:10C2400020310133C4F8203100230121D345C4F843
:10C250000011E55484F80451E5D101374745C9D1AF
:10C2600006E4D04FD0F8001107F11A0A4FF0000988
:10C270000AE00B4601315745C4F8001104F8038069
:10C2800084F8048100F00486FF2917F8018FF0D1AB
:10C29000D4F8083184F8FF90D4F80C212046984750
:10C2A000D4F820310133C4F8203101210023E2E722
:10C2B00016F0040641F0AE819768D2F80490002F82
:10C2C0003FF4D6ABD0F80011B0460AE00B4601317E
:10C2D0000136B742C4F80011E55484F804513FF424
:10C2E000C7ABFF2919F80650F0D1D4F8083184F80B
:10C2F000FF80D4F80C2120469847D4F82031013330
:10C30000C4F8203101210023E2E7A74F52683146EB
:10C3100001F0D0FD07F1080AD4F800114FF0000930
:10C320000AE00B4601315745C4F8001104F80380B8
:10C3300084F8048100F0E586FF2917F8018FF0D119
:10C34000D4F8083184F8FF90D4F80C21204698479F
:10C35000D4F820310133C4F8203101210023E2E771
:10C36000111DFDF733FD002801F0138003782F2BFA
:10C3700001F00280D4F810512B68C4F81031024645
:10C380003146204601F096FDC4F81051FFF770BB0E
:10C390000023D0F81481C0F814315768720705D50E
:10C3A0003B781BB9BA68062A01F0BB833A4620469F
:10C3B000314601F07FFD94F804313C2B01F02F83CE
:10C3C000D4F80031FF2B01F02A82591C3C22C4F81A
:10C3D0000011E25484F804213146AA68204601F095
:10C3E00069FD94F804313E2B01F00B83D4F8003141
:10C3F000FF2B01F00182591C3E22C4F80011E254C7
:10C4000084F80421C4F81481FFF732BB0123C0F87B
:10C410001831FFF72DBBD2F8088098F80030372B81
:10C4200000F05D870123C4F81831FFF721BB57687E
:10C4300095683B78312B01F00380332B01F0468067
:10C440003A46314602F098FB204631462A4602F031
:10C45000CDFBFFF70DBB3146526802F08DFBFFF7B5
:10C4600007BB5768002F40F0D486504DD0F800111C
:10C4700005F1040809E00B4601314545C4F80011F7
:10C48000E65484F804613FF4F3AAFF2915F8016F1C
:10C49000F1D1D4F8083184F8FF70D4F80C2120468B
:10C4A0009847D4F820310133C4F82031012100230A
:10C4B000E3E73F4FD0F8001107F10A0A4FF00009F7
:10C4C0000AE00B4601315745C4F8001104F8038017
:10C4D00084F8048100F0E885FF2917F8018FF0D176
:10C4E000D4F8083184F8FF90D4F80C2120469847FE
:10C4F000D4F820310133C4F8203101210023E2E7D0
:10C5000052682C4906A813F053F906A813F000FA54
:10C5100000283FF4ADAA0DF11705D4F800112F182B
:10C520004FF0000809E00B460131BD42C4F800118C
:10C53000E65484F804613FF49BAAFF2915F8016FC3
:10C54000F1D1D4F8083184F8FF80D4F80C212046CA
:10C550009847D4F820310133C4F820310121002359
:10C56000E3E7D0F800111579FF2901F0AE804B1CEC
:10C57000C4F80031655484F80451FFF779BA3146A4
:10C58000526801F097FC20463146AA6801F092FCFF
:10C59000FFF76EBA084FD0F8001107F10E0A4FF0FE
:10C5A00000091AE08F990208A39A0208339A020838
:10C5B000239A020850980208139A0208C5990208A3
:10C5C000C39902080B4601315745C4F8001104F81D
:10C5D000038084F8048100F06085FF2917F8018F3B
:10C5E000F0D1D4F8083184F8FF90D4F80C2120461B
:10C5F0009847D4F820310133C4F8203101210023B9
:10C60000E2E752681178272940F0B4855268177C18
:10C610005FB1062F41F27881072F06D1AA68117801
:10C6200019B99168012901F0AD83D4F80011FF29EF
:10C6300001F050814A1C2823C4F80021635484F877
:10C6400004316A682046314601F034FCD4F80031E8
:10C65000FF2B01F01C81591C2922C4F80011E2545F
:10C6600084F804212B783C2B01F00682082F01F07E
:10C67000E48120463146AA6801F01CFCFFF7F8B9B6
:10C680000123C0F81831FFF7F3B993681A78392AF3
:10C690007FF4C8AE9F683A783A2A7FF4C3AED5F8E3
:10C6A00004A0BA49DAF80420D3F804801068D7F857
:10C6B0000490BD6804F0DCF8002801F09082204668
:10C6C000B349FFF72DF9D8F8043043B1204631467D
:10C6D000424602F08BFA20462021FDF75BFA4A46DB
:10C6E0002046314601F0E6FB002D3FF4C1A920466B
:10C6F00031462A4602F07AFAFFF7BAB9526812B107
:10C70000314601F0D7FBAB68002B3FF4B1A9D4F858
:10C710000071FD2F00F2F986DFF888824FF0000AE1
:10C7200008F1020B394609E00B460131D845C4F83F
:10C730000011E75484F8047100F0FD84FF2918F813
:10C74000017FF1D1D4F8083184F8FFA0D4F80C218E
:10C7500020469847D4F820310133C4F82031012114
:10C760000023E3E7B2F90A30002B40F029866A681B
:10C77000884953688B4200F0FB853146204601F022
:10C7800099FBD4F80031FF2B01F0F480591C2022D2
:10C79000C4F80011E25484F80421B5F90830002BE4
:10C7A00000F0EB847C4D4FF00008AF1D09E00B4614
:10C7B0000131BD42C4F80011E65484F804613FF42D
:10C7C00057A9FF2915F8016FF1D1D4F8083184F881
:10C7D000FF80D4F80C2120469847D4F8203101334B
:10C7E000C4F8203101210023E3E716ABD0F814216F
:10C7F00043F8402DC0F81431AA68D0F810310993DD
:10C80000002731460795089701F054FB089B23B990
:10C8100031462A46204601F059FB069BC4F81431E4
:10C82000FFF726B9D0F814B1D0F81031CDF808B020
:10C8300016A9002241F840BD0993029B0191C0F85E
:10C84000141107950892002B01F01D835B681B787B
:10C85000193B022B01F21783AB464FF00108029FF0
:10C8600003968A460D4604E07B681B78193B022B31
:10C870001DD84FEA081C0DF15809BB68E144A9F125
:10C8800040068BB9B8F1030F00F2DC8797E80F0080
:10C8900086E80F0049F8405C01210AEB0C05C4F85A
:10C8A000145108F10108B9603F68002FDCD1039EE4
:10C8B000DBF808202046314601F0FCFA089B029A7A
:10C8C000C4F814215D46002B7FF4D2A8B8F1010F03
:10C8D00001F03981019B03EB081757F80C2C08F184
:10C8E000FF382046314601F0F1FAB8F1010FA7F107
:10C8F0001007F2D1D4F81431204631462A1D01F038
:10C90000BBFEFFF7B5B8B30600F1488553681BB10D
:10C9100016F0400300F09B8726F060062046314663
:10C9200005F10802D4F8143101F076FFFFF7A0B842
:10C930001A4ED0F8001106F10E094FF0000809E078
:10C940000B4601314E45C4F80011E75484F80471D8
:10C9500000F0F782FF2916F8017FF1D1D4F80831F1
:10C9600084F8FF80D4F80C2120469847D4F8203171
:10C970000133C4F8203101210023E3E7084FD0F848
:10C98000001107F1160A4FF0000918E0309802086C
:10C99000F099020894540208B3990208939A020885
:10C9A00093990208C39902080B4601315745C4F810
:10C9B000001104F8038084F8048100F0BB82FF2991
:10C9C00017F8018FF0D1D4F8083184F8FF90D4F82B
:10C9D0000C2120469847D4F820310133C4F8203187
:10C9E00001210023E2E7D04FD0F8001107F11C0A23
:10C9F0004FF000090AE00B4601315745C4F8001119
:10CA000004F8038084F8048100F06183FF2917F89B
:10CA1000018FF0D1D4F8083184F8FF90D4F80C21BC
:10CA200020469847D4F820310133C4F82031012141
:10CA30000023E2E7BD4FD0F8001107F1080A4FF0DC
:10CA400000090AE00B4601315745C4F8001104F80B
:10CA5000038084F8048100F0B182FF2917F8018F68
:10CA6000F0D1D4F8083184F8FF90D4F80C21204696
:10CA70009847D4F820310133C4F820310121002334
:10CA8000E2E7AB4FD0F8001107F11D0A4FF00009A3
:10CA90000AE00B4601315745C4F8001104F8038041
:10CAA00084F8048100F04083FF2917F8018FF0D14A
:10CAB000D4F8083184F8FF90D4F80C212046984728
:10CAC000D4F820310133C4F8203101210023E2E7FA
:10CAD000984FD0F8001107F1090A4FF000090AE059
:10CAE0000B4601315745C4F8001104F8038084F85F
:10CAF000048100F0D481FF2917F8018FF0D1D4F818
:10CB0000083184F8FF90D4F80C2120469847D4F8D7
:10CB100020310133C4F8203101210023E2E716F06F
:10CB20000406536840F04B835F68D3F80090002FF1
:10CB30003EF49EAFD0F80011B0460AE00B4601313A
:10CB40000136B742C4F80011E55484F804513EF4AC
:10CB50008FAFFF2919F80650F0D1D4F8083184F8C6
:10CB6000FF80D4F80C2120469847D4F820310133B7
:10CB7000C4F8203101210023E2E750680378052B37
:10CB800000F00B87232B00F0A5832A789A4200F04F
:10CB9000A183242B7EF450AF16ABD4F81411426855
:10CBA00043F8401D0020D4F810110795C4F8143143
:10CBB00008900991002A7EF44DAFFEF74ABF314636
:10CBC000526801F077F9FEF753BF57685A4DD7F80E
:10CBD0000890D0F8001105F1080A4FF0000809E0AC
:10CBE0000B4601315545C4F80011E65484F8046140
:10CBF00000F06381FF2915F8016FF1D1D4F80831F5
:10CC000084F8FF80D4F80C2120469847D4F82031CE
:10CC10000133C4F8203101210023E3E7454FD0F868
:10CC2000001107F1090A4FF000090AE00B46013133
:10CC30005745C4F8001104F8038084F8048100F01B
:10CC40003581FF2917F8018FF0D1D4F8083184F825
:10CC5000FF90D4F80C2120469847D4F820310133B6
:10CC6000C4F8203101210023E2E75268AF6812B115
:10CC7000314601F01FF9D4F80031FF2B00F0848415
:10CC80005A1C7B25C4F800213146E5543A4620461B
:10CC900084F8045101F00EF9D4F80011FF2900F0D6
:10CCA00061844A1C7D23C4F80021635484F8043154
:10CCB000FEF7DEBE0123C0F81831FEF7D9BE7F684B
:10CCC000002F00F09986B8F1040F7FF499A9012391
:10CCD000C4F81831FEF7CCBED4F80011FF2900F0DB
:10CCE0000E874A1C2E23C4F80021635484F80431B3
:10CCF000D5F8088098F80030452B00F0C184204614
:10CD00003146424601F0D6F8FEF7B2BE2046314623
:10CD10006A6801F0CFF8FEF7ABBE204631466A687C
:10CD200001F0C8F8FEF7A4BE639A0208839A0208CD
:10CD3000439A0208D3990208C7990208BD4FAA680E
:10CD40003146204601F0B6F807F1050AD4F8001183
:10CD50004FF0000909E00B4601315745C4F80011B6
:10CD600004F8038084F8048113D0FF2917F8018F99
:10CD7000F1D1D4F8083184F8FF90D4F80C21204682
:10CD80009847D4F820310133C4F820310121002321
:10CD9000E3E7204631466A6801F08CF8FEF768BE8A
:10CDA000204631466A6801F085F8FEF761BE2046EC
:10CDB00031466A6801F07EF8FEF75ABE20463146D9
:10CDC0006A6801F077F8FEF753BE204631466A687C
:10CDD00001F070F8FEF74CBE204631466A6801F05B
:10CDE00069F8FEF745BE944F6A683146204601F067
:10CDF00061F807F1040AD4F800114FF0000909E0C6
:10CE00000B4601315745C4F8001104F8038084F83B
:10CE100004811AD0FF2917F8018FF1D1D4F8083115
:10CE200084F8FF90D4F80C2120469847D4F820319C
:10CE30000133C4F8203101210023E3E720463146C5
:10CE40006A6801F037F8FEF713BE20463146AA683B
:10CE500001F030F8FEF70CBE204631466A6801F05A
:10CE600029F8FEF705BE204631466A6801F022F82F
:10CE7000FEF7FEBD204631466A6801F01BF8FEF75A
:10CE8000F7BD204631466A6801F014F8FEF7F0BDA0
:10CE9000204631466A6801F00DF8FEF7E9BD2046EC
:10CEA00031462A1D01F0A4FDFEF7E2BD20463146C1
:10CEB000AA6800F0FFFFFEF7DBBD7D682B78613BC1
:10CEC000192B40F2A48205EB090313F8013C202B37
:10CED0000CBF09F1FF374F46002F3EF4C9ADD4F81F
:10CEE00000112F444FF0000809E00B460131BD420C
:10CEF000C4F80011E65484F804613EF4B9ADFF298A
:10CF000015F8016BF1D1D4F8083184F8FF80D4F81A
:10CF10000C2120469847D4F820310133C4F8203141
:10CF200001210023E3E7204631466A6800F0C2FF92
:10CF3000FEF79EBD204631466A6800F0BBFFFEF753
:10CF400097BD6A683D49013206A812F031FC06A877
:10CF500012F0DEFC20B30DF11705D4F800112F18E4
:10CF60004FF0000808E00B460131BD42C4F8001143
:10CF7000E65484F8046115D0FF2915F8016FF2D149
:10CF8000D4F8083184F8FF80D4F80C212046984763
:10CF9000D4F820310133C4F8203101210023E4E723
:10CFA000D4F80011FF2900F002834A1C7D23C4F845
:10CFB0000021635484F80431FEF75ABD3146204EF7
:10CFC0006A68204600F076FF06F10209D4F80011E5
:10CFD0004FF0000808E00B4601314E45C4F800113F
:10CFE000E75484F8047113D0FF2916F8017FF2D1B9
:10CFF000D4F8083184F8FF80D4F80C2120469847F3
:10D00000D4F820310133C4F8203101210023E4E7B2
:10D01000AA680A49013206A812F0CAFB06A812F053
:10D0200077FC60B30DF11705D4F800112F184FF0FD
:10D03000000810E05B9902089798020850980208CF
:10D040008F9A02080B460131BD42C4F80011E65424
:10D0500084F8046115D0FF2915F8016FF2D1D4F8D6
:10D06000083184F8FF80D4F80C2120469847D4F882
:10D0700020310133C4F8203101210023E4E7D4F842
:10D080000011FF2900F032834A1C7D23C4F80021DF
:10D09000635484F80431FEF7EBBC204631466A68DD
:10D0A00000F008FFFEF7E4BC31466A68204600F055
:10D0B00001FFD4F80011FF2900F08A824A1C2923BD
:10D0C000C4F80021635484F80431FEF7D1BC204633
:10D0D00031466A6800F0EEFEFEF7CABC3146AA6827
:10D0E000204600F0E7FED4F80011FF2900F00F837E
:10D0F0004A1C5D23C4F80021635484F80431FEF710
:10D10000B7BC3146AA68204600F0D4FED4F800111E
:10D11000FF2900F06E824A1C5D23C4F8002163548D
:10D1200084F80431FEF7A4BC204631466A6800F05A
:10D13000C1FEFEF79DBCAA68D4F820510F462046D8
:10D14000314600F0B7FED4F820319D427EF490AC19
:10D15000D4F80031BB427EF48BAC023FC4F80071BE
:10D16000FEF786BC6D680195B8F1000F7FF43BA80F
:10D17000FEF77EBC0027FFF758BAAB4D9846AF1DAF
:10D1800009E00B460131BD42C4F80011E65484F8B1
:10D1900004613EF46DACFF2915F8016FF1D1D4F8AC
:10D1A000083184F8FF80D4F80C2120469847D4F841
:10D1B00020310133C4F8203101210023E3E7DF6887
:10D1C000D3F80890002F3EF453AC0025D0F800119E
:10D1D000A8460AE00B4601310135AF42C4F8001100
:10D1E000E65484F804613EF443ACFF2919F8056065
:10D1F000F0D1D4F8083184F8FF80D4F80C2120460F
:10D200009847D4F820310133C4F82031012100239C
:10D21000E2E7864DD0F8001105F106094FF000084D
:10D2200008E00B4601314D45C4F80011E65484F87E
:10D23000046113D0FF2915F8016FF2D1D4F8083139
:10D2400084F8FF80D4F80C2120469847D4F8203188
:10D250000133C4F8203101210023E4E73A4606A84F
:10D26000734912F0A5FA06A812F052FB20B30DF193
:10D270001705D4F800112F184FF0000808E00B46EE
:10D280000131BD42C4F80011E65484F8046115D0A0
:10D29000FF2915F8016FF2D1D4F8083184F8FF8026
:10D2A000D4F80C2120469847D4F820310133C4F833
:10D2B000203101210023E4E7D4F80011FF2900F018
:10D2C00045844A1C7D23C4F80021635484F804314A
:10D2D000FEF7CEBB0546D4F81421FEF7AFBB52686B
:10D2E000536819684878632800F0E283117831297F
:10D2F00000F04E8453684F49186803F0B9FAD8F823
:10D30000042018B91378032B00F05B8420463146C3
:10D3100001F06CFCD5F804804749D8F804301F6848
:10D32000384603F0A5FA002800F022843846414927
:10D3300003F09EFA002840F03D84AB6831469A68BD
:10D34000204601F053FC6B681A78312A7EF490ABCA
:10D350005B689A68012A7EF48BAB5B681B783E2B76
:10D360007EF486AB20462921FCF714FCFEF780BB37
:10D37000D4F80011FFF711BAD4F81C3102E002789A
:10D380002F2A06D1002B40F376858068013B0028C8
:10D39000F5D10123C4F81831FEF76ABB26F0600608
:10D3A00008323146D4F8143101F036FA6A68002A9E
:10D3B0003EF45EAB2046314600F07CFDFEF758BBE4
:10D3C0001E4FD0F8001107F1050A4FF000090AE0DE
:10D3D0000B4601315745C4F8001104F8038084F866
:10D3E00004813FF4C4A9FF2917F8018FF0D1D4F8C4
:10D3F000083184F8FF90D4F80C2120469847D4F8DF
:10D4000020310133C4F8203101210023E2E7FF2954
:10D4100000F021844A1C2023C4F80021635484F8BE
:10D4200004317D684FE500BFBB9902083B9A0208B2
:10D430005098020824980208E8990208AB9902085B
:10D440007B68C549D3F80080404603F011FA2B7879
:10D4500010B9032B00F01184372B00F087843A4673
:10D460002046314601F088FBB8F1000F3EF4ECAFE6
:10D470004046BA4903F0FCF9002800F03E824046DD
:10D48000B74903F0F5F9074600287EF4DDAFD4F87C
:10D490000031FF2B00F02184581C2827C4F800011C
:10D4A0003146E7542A46204684F8047100F002FD14
:10D4B000D4F80011FF2900F0FF8329234A1CC4F887
:10D4C0000021635484F80431FEF7D2BAD0F8001179
:10D4D000FF2900F0AF834A1C2823C4F8002120460E
:10D4E00063543A1D314684F8043101F081FAD4F8CE
:10D4F0000011FF2900F08D834A1C2923C4F8002164
:10D50000635484F80431FEF79FBF4FF0000804F81D
:10D5100007803946D4F80831D4F80C2120469847C2
:10D52000D4F82031C4F8008101334746C4F82031D3
:10D53000FFF7F2B8204631466A6800F0BBFCFEF700
:10D5400097BA0027D0F80831D0F80C2180F8FF7086
:10D550009847D4F8203101333946C4F820310122EC
:10D56000FEF72CBD0025D4F80831D4F80C2184F83E
:10D57000FF5020469847D4F8203101332946C4F89B
:10D5800020310122FFF78EBB00251946D4F80C216B
:10D59000D4F8083184F8FF5020469847D4F8203159
:10D5A0005A1CC4F820212B460122FFF76ABB002534
:10D5B000D4F80831D4F80C2184F8FF50204698475D
:10D5C000D4F8203101332946C4F820310122EDE49A
:10D5D0000025D4F80831D4F80C2184F8FF502046F7
:10D5E0009847D4F8203101332946C4F8203101226C
:10D5F00065E50025D4F80831D4F80C2184F8FF50F3
:10D6000020469847D4F8203101332946C4F8203108
:10D61000012281E5566897683744BE42BEF428AAC5
:10D620004FF000080DE0D4F80011FF2918D04B1C72
:10D63000C4F80031655484F804510136B7427EF6CF
:10D6400017AABB1B032B3578EDDD5F2DEBD172786C
:10D650005F2AE8D1B378552B00F050831546E2E7F6
:10D66000D4F8083184F8FF80D4F80C21204698477C
:10D67000D4F820310133C4F8203100210123D7E749
:10D68000384DD4F8001105F10D0A4FF0000908E0FB
:10D690000B4601315545C4F80011E75484F8047174
:10D6A00046D0FF2915F8017FF2D1D4F8083184F86B
:10D6B000FF90D4F80C2120469847D4F8203101334C
:10D6C000C4F8203101210023E4E70026D0F8083116
:10D6D00080F8FF60D0F80C219847D4F8203101334E
:10D6E000C4F8203131460123FEF742BF0025D4F8AB
:10D6F0000831D4F80C2184F8FF5020469847D4F81C
:10D70000203101332946C4F820310122BDE400252F
:10D71000D4F80831D4F80C2184F8FF5020469847FB
:10D72000D4F8203101332946C4F820310122E0E445
:10D73000D8F808200C49013206A812F039F806A8DA
:10D7400012F0E6F878B30DF11705D4F8001105EBE7
:10D75000000A4FF0000912E0E0990208E49902087B
:10D76000CC9C02083F980208509802080B460131F1
:10D770005545C4F80011E75484F8047115D0FF2909
:10D7800015F8017FF2D1D4F8083184F8FF90D4F86D
:10D790000C2120469847D4F820310133C4F82031B9
:10D7A00001210023E4E7D4F80011BD4D4FF000093A
:10D7B00005F1030A08E00B4601315545C4F8001194
:10D7C000E75484F8047113D0FF2915F8017FF2D1D2
:10D7D000D4F8083184F8FF90D4F80C2120469847FB
:10D7E000D4F820310133C4F8203101210023E4E7CB
:10D7F000D8F80480FFF783BA00251946D4F80C2125
:10D80000D4F8083184F8FF5020469847D4F82031E6
:10D810005A1CC4F820212B460121FEF7EDBD00273C
:10D820001946D4F80C21D4F8083184F8FF7020464A
:10D830009847D4F820315A1CC4F820213B460121D6
:10D84000FEF7C4BD0123C4F81831FEF711B916AABA
:10D85000D4F8141142F8401D26F06006C4F81421D3
:10D860006A68D4F8107108933146204607950997E5
:10D8700000F020FB089B069AC4F81421002B7EF4CC
:10D88000F7A820462021FCF785F9FFF747B80022CA
:10D89000194684F8FF20D4F80831D4F80C2120462A
:10D8A00098472923237084F804312A78D4F820314A
:10D8B000012101333C2AC4F82031C4F800117EF460
:10D8C000D5AE2D234A1CC4F80021635484F80431DA
:10D8D000FEF7CCBE4FF00008D4F80831D4F80C2184
:10D8E00084F8FF8020469847D4F820310133414620
:10D8F000C4F820310122FEF79EBE204631462A465A
:10D9000000F0D8FAFEF7B4B8D5F8088098F80020EF
:10D91000002A7EF48AAE3C2B00F0908231464246CB
:10D920002046023F00F0C6FA042F3EF6A1A8DFE829
:10D9300007F01B150F09030020465A49FDF7F0FFB9
:10D94000FEF796B820465849FDF7EAFFFEF790B873
:10D9500020465649FDF7E4FFFEF78AB820466C21C1
:10D96000FCF718F9FEF784B820467521FCF712F988
:10D97000FEF77EB800261946D4F80C21D4F80831F9
:10D9800084F8FF6020469847D4F820315A1CC4F828
:10D99000202133460121FEF7FABE011D2046FCF787
:10D9A00015FA80B103782F2B7FF4ECA8D4F81C3142
:10D9B00005E08068013B30B102782F2A03D1002BAB
:10D9C000F7DC00F051820123C4F81831FEF750B89B
:10D9D000D4F80011FF2900F0BA814B1CC4F80031C3
:10D9E000204604F8019055F80C2C84F80491414627
:10D9F00000F06CFAFEF775BB0123C4F81831FEF78E
:10DA000037B8D4F80011FF2900F0DC8120224B1C2C
:10DA1000C4F80031625484F80421FEF7E9BCD4F85C
:10DA20000011FF2900F0EA8120224B1CC4F80031CC
:10DA3000625484F80421FEF7C5BCD4F80011FF2914
:10DA400000F0EC814A1C5B23C4F80021635484F885
:10DA500004313146AA68204600F02CFAD4F80011AF
:10DA6000FF2900F09F815D234A1CC4F80021635404
:10DA700084F80431FDF7FCBFFF297FF422AF4FF09B
:10DA80000008D4F8083184F8FF80D4F80C2120462F
:10DA90009847D4F8203101334146C4F8203110E7CB
:10DAA00053980208009A0208FC990208F8990208A3
:10DAB0000978A1F16300012803D9723901293FF6E1
:10DAC00015AC2046314601F057F820463C21FCF7C2
:10DAD00061F8AB6820465A68314600F0EBF9204601
